:1000000012C02CC02BC02AC029C028C0BEC326C025
:1000100025C024C023C022C021C020C01FC01EC0D4
:100020001DC01CC01BC011241FBECFE5D4E0DEBF25
:10003000CDBF11E0A0E6B0E0E0E7FCE002C0059033
:100040000D92AE31B107D9F721E0AEE1B1E001C0C8
:100050001D92AC32B207E1F7DDD308C6D1CF81B330
:10006000807F81BB959A969882E08A95F1F7949A61
:1000700092E09A95F1F780B38295807F92E09A950D
:10008000F1F7949894E09A95F1F7949A92E09A9502
:10009000F1F790B392E09A95F1F7949894E09A95DD
:1000A000F1F787FDE4CF959881B38F6081BB089508
:1000B000282F22952F708F70611102C0969801C071
:1000C000969A92E09A95F1F7949A92B3907F922B38
:1000D00092BB94E09A95F1F7949894E09A95F1F791
:1000E000949A92B3907F982B92BB84E08A95F1F713
:1000F000949894E09A95F1F7B2CFCF93DF931F9243
:10010000CDB7DEB72FE339E191E021503040904088
:10011000E1F700C0000091B39F6091BB8C9A8E9A6A
:100120008D9A92B3907F92BB94989598969800C0C0
:1001300000C0949A919AE4E0EA95F1F79498F4E07B
:10014000FA95F1F789838BDF60E089818C60B0DFFD
:1001500060E088E20F90DF91CF91AACFCF93DF9339
:10016000EC0102C061E0A4DF89918111FBCFDF9136
:10017000CF9108950F931F93CF93DF9300D000D0BA
:100180001F92CDB7DEB79B01FE01319645E0DF013E
:100190001D924A95E9F7FE0136960AE010E004C088
:1001A000B8013DD58293CB010097D1F72F3FBFEF28
:1001B0003B0751F4FE013196CF018F01081B190B4B
:1001C00021912223D1F311C005E010E0021B130B93
:1001D0000CC0E1E0F0E0EC0FFD1FE00FF11F8081AB
:1001E00061E0805D65DF0F5F1F4F053011058CF307
:1001F0000F900F900F900F900F90DF91CF911F9164
:100200000F910895883228F46111806460E080685D
:100210004FCF08959CE1899F802D112490E020E02C
:1002200030E004C0F9013197F1F79F5F9813FACFDE
:100230000895A89A0895A8980895A99A0895A99844
:1002400008950F931F93CF93DF9360E081E030DF39
:1002500081E690E083DF61E080E0D4DF82E790E038
:100260007DDF1092600086B380932B011BE307E1D2
:10027000C0E0D0E096B380912B0189278770D1F33D
:10028000B2990FC080912B0182FF0BC0809160005A
:100290008F5F8093600080916000853011F4109230
:1002A0006000B19B03C0B09B87C046C080912B010A
:1002B00081FFF9CF8091600081110BC080912901ED
:1002C0008F5F8093290180912901883111F4109268
:1002D000290180916000813059F4809126018F5F5F
:1002E00080932601809126018C3311F4109226010F
:1002F00080916000823059F4809124018F5F809357
:10030000240180912401883111F4109224018091FC
:100310006000833059F4809128018F5F8093280119
:10032000809128018C3311F4109228018091600093
:10033000843009F0B8CFCDC086B380932B0160E044
:1003400081E0B6DE81E690E009DF61E080E05ADF1F
:1003500082E790E003DF60E082E054DF80912901D2
:1003600062E070E0992787FD909504DF60E085E00A
:1003700049DF8091260162E070E0992787FD909522
:10038000F9DE60E08BE03EDF8091240162E070E006
:10039000992787FD9095EEDE60E08EE033DF809157
:1003A000280162E070E0992787FD9095E3DE809157
:1003B000600081114DC046C080912B0180FFBCCFF1
:1003C0008091600081110BC0809129018150809340
:1003D0002901809129018F3F11F400932901809117
:1003E0006000813059F4809126018150809326016C
:1003F000809126018F3F11F41093260180916000B7
:10040000823059F48091240181508093240180919D
:1004100024018F3F11F40093240180916000833008
:1004200059F48091280181508093280180912801FE
:100430008F3F11F41093280180916000843009F0FF
:100440007BCF47C061E083E0DDDE84ED90E086DEB7
:1004500080916000813031F461E085E0D3DE84ED8D
:1004600090E07CDE80916000823031F461E08BE0CE
:10047000C9DE84ED90E072DE80916000833031F45B
:1004800061E08EE0BFDE84ED90E068DE8091600088
:10049000843031F461E080E0B5DE83E890E05EDE38
:1004A000CE010197F1F7CE010197F1F7CE01019747
:1004B000F1F7CE010197F1F7CE010197F1F7CE01E7
:1004C0000197F1F7CE010197F1F7CE010197F1F70E
:1004D000D1CE1092600086B380932B01DF91CF9133
:1004E0001F910F9108950F931F93CF93DF9360E0B7
:1004F00081E0DEDD81E690E031DE61E080E082DEF9
:1005000085E890E02BDE1092600086B380932B018B
:100510001BE307E1C0E0D0E096B380912B0189276F
:100520008770D1F3B2990FC080912B0182FF0BC06D
:10053000809160008F5F80936000809160008530C3
:1005400011F410926000B19B03C0B09B87C046C0FD
:1005500080912B0181FFF9CF8091600081110BC048
:10056000809123018F5F8093230180912301883143
:1005700011F41092230180916000813059F4809130
:1005800027018F5F80932701809127018C3311F41D
:100590001092270180916000823059F480912501EA
:1005A0008F5F8093250180912501883111F410928D
:1005B000250180916000833059F480912A018F5F7A
:1005C00080932A0180912A018C3311F410922A0120
:1005D00080916000843009F0B8CFCDC086B380939D
:1005E0002B0160E081E064DD81E690E0B7DD61E051
:1005F00080E008DE85E890E0B1DD60E082E002DEC8
:100600008091230162E070E0992787FD9095B2DD2B
:1006100060E085E0F7DD8091270162E070E09927D6
:1006200087FD9095A7DD60E08BE0ECDD80912501F2
:1006300062E070E0992787FD90959CDD60E08EE098
:10064000E1DD80912A0162E070E0992787FD9095B5
:1006500091DD8091600081114DC046C080912B01D9
:1006600080FFBCCF8091600081110BC0809123017D
:10067000815080932301809123018F3F11F40093D7
:10068000230180916000813059F4809127018150CD
:1006900080932701809127018F3F11F41093270148
:1006A00080916000823059F48091250181508093BF
:1006B0002501809125018F3F11F400932501809140
:1006C0006000833059F480912A01815080932A017F
:1006D00080912A018F3F11F410932A0180916000CC
:1006E000843009F07BCF47C061E083E08BDD84ED8F
:1006F00090E034DD80916000813031F461E085E08C
:1007000081DD84ED90E02ADD80916000823031F45B
:1007100061E08BE077DD84ED90E020DD809160008A
:10072000833031F461E08EE06DDD84ED90E016DD24
:1007300080916000843031F461E080E063DD83E823
:1007400090E00CDDCE010197F1F7CE010197F1F7B2
:10075000CE010197F1F7CE010197F1F7CE01019794
:10076000F1F7CE010197F1F7CE010197F1F7CE0134
:100770000197F1F7D1CE1092600086B380932B01E0
:10078000DF91CF911F910F9108951F920F920FB695
:100790000F9211242F938F939F9380912101909119
:1007A00022010196909322018093210180912101E1
:1007B00090912201883E934029F5809120018F5F1E
:1007C000809320011092220110922101809120013A
:1007D0008C33C1F480911F018F5F80931F011092B1
:1007E000200180911F018C3369F480911E018F5F7D
:1007F00080931E0110921F0180911E01883111F417
:1008000010921E019F918F912F910F900FBE0F900C
:100810001F901895A09AA19A0EDD11DD88B387600C
:1008200088BB109228011092240110922601109288
:10083000290180E062DC60E081E03ADC8BE08EBD83
:100840008AEF90E09BBD8ABD89B7806189BF7894AB
:1008500060E081E02DDC86E990E080DC61E080E012
:10086000D1DC87EA90E07ADC84E0D4DC60E081E0EF
:100870001FDC88EB90E072DC61E080E0C3DC89EC97
:1008800090E06CDC86B380932B0110E000E0C0E0C8
:10089000D0E096B380912B0189278770D1F3B2996C
:1008A0000FC080912B0182FF0BC0809160008F5F91
:1008B0008093600080916000833011F4109260009A
:1008C000B19919C080912B0181FF15C08091600002
:1008D000813021F40F5F083109F400E0809160005D
:1008E000823021F41F5F1C3309F410E08091600016
:1008F000882309F472C0B09917C080912B0180FF42
:1009000013C080916000813019F4015008F407E1B0
:1009100080916000823019F4115008F41BE380913B
:100920006000882309F459C086B380932B0160E0EE
:1009300081E0BEDB88EB90E011DC61E080E062DC0E
:1009400086ED90E00BDC60E08BE05CDC62E070E068
:10095000802F992787FD90950DDC60E08EE052DCBA
:1009600062E070E0812F992787FD909503DC8091EC
:100970006000811105C061E045DC83E890E0EEDBBA
:1009800080916000813031F461E08BE03BDC84EDEC
:1009900090E0E4DB80916000823031F461E08EE031
:1009A00031DC84ED90E0DADBCE010197F1F7CE0186
:1009B0000197F1F7CE010197F1F7CE010197F1F719
:1009C000CE010197F1F7CE010197F1F7CE01019722
:1009D000F1F7CE010197F1F75CCF00931E01109360
:1009E0001F011092200160E081E062DB81EE90E067
:1009F000B5DB61E080E006DC82EF90E0AFDB1092D7
:100A0000600086B380932B01C0E0D0E096B3809164
:100A10002B0189278770D1F3B2990FC080912B01E8
:100A200082FF0BC0809160008F5F80936000809197
:100A30006000833011F410926000B19B03C0B09B42
:100A400028C013C080912B0181FFF9CF80916000F5
:100A5000811101C0F6DB80916000813009F443DD33
:100A600080916000823059F75AC086B380932B0181
:100A700060E081E01DDB81EE90E070DB61E080E012
:100A8000C1DB8FEF90E06ADB8091600081111AC0BA
:100A900013C080912B0180FFE8CF8091600081110D
:100AA00001C0CFDB80916000813009F41CDD8091B2
:100AB00060008230D1F633C060E080E0A3DB83E8E1
:100AC00090E04CDB80916000813031F461E080E0A7
:100AD00099DB83E890E042DB80916000823031F462
:100AE00060E08AE08FDB83E890E038DBCE0101979D
:100AF000F1F7CE010197F1F7CE010197F1F7CE01A1
:100B00000197F1F7CE010197F1F7CE010197F1F7C7
:100B1000CE010197F1F7CE010197F1F777CF60E0B1
:100B200081E0C6DA8AE091E019DBC0E0D0E061E064
:100B300084E068DB80911E0162E070E0992787FD08
:100B4000909518DB8BE191E009DB61E087E05ADBEF
:100B500080911F0162E070E0992787FD90950ADB84
:100B60008BE191E0FBDA61E08AE04CDB80912001CF
:100B700062E070E0992787FD9095FCDA90911E0164
:100B80008091290198130BC090911F01809126013B
:100B9000981305C080912001811101C04ADB90911A
:100BA0001E018091240198130BC090911F01809128
:100BB0002801981305C080912001811101C03BDB01
:100BC00090911E018091230198130BC090911F01F9
:100BD00080912701981305C080912001811101C0E7
:100BE0002CDB90911E018091250198130BC09091F0
:100BF0001F0180912A01981305C080912001811165
:100C000001C01DDBCE010197F1F7CE010197F1F78D
:100C1000CE010197F1F7CE010197F1F788CF97FB4D
:100C2000072E16F4009406D077FD08D00BD007FCF1
:100C300005D03EF4909581959F4F089570956195EC
:100C40007F4F0895AA1BBB1B51E107C0AA1FBB1F02
:100C5000A617B70710F0A61BB70B881F991F5A9548
:100C6000A9F780959095BC01CD010895F894FFCF28
:100C7000014F6E30303A3030204F666630303A30B7
:100C80003000205573746177202055727A61647A40
:100C90005F31003E00205573746177202055727AD1
:100CA00061647A5F3200202053796D756C61746FD6
:100CB0007220202020200020202020446F6D6F779C
:100CC0006E696B6F77202000557374617720637AAB
:100CD00061732030303A3030002044616C656A2006
:100CE000202020205E002044616C656A20202020A6
:100CF000002055727A61647A5F31202053746172EA
:100D000074002055727A61647A5F322020200020BE
:100D100055727A61647A5F32200020416B7475618C
:0E0D20006C6E7920637A61733A20003A00000D
:00000001FF
