:1000000012C02CC02BC02AC029C028C087C226C05D
:1000100025C024C023C022C021C020C01FC01EC0D4
:100020001DC01CC01BC011241FBECFE5D4E0DEBF25
:10003000CDBF10E0A0E6B0E0E4ECF5E002C0059032
:100040000D92A03FB107D9F720E0A0EFB0E001C0CA
:100050001D92A53FB207E1F707D1B2C2D1CF81B35C
:10006000807F81BB959A969882E08A95F1F7949A61
:1000700092E09A95F1F780B38295807F92E09A950D
:10008000F1F7949894E09A95F1F7949A92E09A9502
:10009000F1F790B392E09A95F1F7949894E09A95DD
:1000A000F1F7882324F3959881B38F6081BB08957D
:1000B000282F22952F708F70611102C0969801C071
:1000C000969A92E09A95F1F7949A92B3907F922B38
:1000D00092BB94E09A95F1F7949894E09A95F1F791
:1000E000949A92B3907F892B82BB84E08A95F1F732
:1000F000949894E09A95F1F7B2DF0895CF93C82FC2
:100100002FE389E191E0215080409040E1F700C069
:10011000000081B38F6081BB8C9A8E9A8D9A82B3D6
:10012000807F82BB94989598969800C000C0949A5E
:10013000919A24E02A95F1F7949884E08A95F1F752
:100140008EDF60E08C2F8C60B3DF60E088E2B0DF90
:10015000CF910895CF93DF93EC018881882331F00C
:10016000219661E0A5DF89918111FBCFDF91CF91CD
:100170000895EF92FF920F931F93CF93DF9300D0D8
:1001800000D01F92CDB7DEB77B01FE01319625E08E
:10019000DF011D922A95E9F7009759F0FE01369686
:1001A0002AE030E0B901E5D18293862F972F00979E
:1001B000C9F7BFEFEB16FB0669F4298121110FC0C7
:1001C000FE01329600E010E00F5F1F4F21912223C5
:1001D000D9F307C005E010E00E191F0902C000E0C6
:1001E00010E099231CF461E08DE262DF0530110517
:1001F0009CF4E1E0F0E0EC0FFD1F0E0F1F1F7E01ED
:10020000F6E0EF0EF11CD8018D918D0161E0805D6B
:100210004FDF0E151F05B9F70F900F900F900F903D
:100220000F90DF91CF911F910F91FF90EF90089564
:10023000883228F46111806460E0806839DF0895B5
:100240009CE1899F802D1124882349F090E020E0D3
:1002500030E0F9013197F1F79F5F9813FACF0895D5
:10026000A89A0895A89808950F2EFBE0FF2EF02D70
:100270000F2EFAEFAF2EB12CF02DC0E0D0E00F2EF4
:10028000F3E6EF2EF02DA09AEDDF88B3876088BBF0
:1002900080E034DF60E081E00BDFFEBCBBBCAABCC9
:1002A00089B7806189BF789460E081E001DF80E6F2
:1002B00090E050DF61E080E0BBDF81E790E04ADF63
:1002C00084E0BEDF60E081E0F3DE82E890E042DFC0
:1002D00061E080E0ADDF83E990E03CDFD6B211E081
:1002E000C12C00E086B38D258770E1F3B29906C07A
:1002F000D2FE04C01F5F133009F410E0B19912C0A0
:10030000D1FE10C0113021F40F5F043659F4DAC069
:10031000123029F4C3948CE3C81204C0D5C0112351
:1003200009F468C0B09912C0D0FE10C0113021F499
:10033000015008F0D1C0CAC0123029F4CA948FEF1E
:10034000C812CAC0C5C01111C7C054C0D6B260E03F
:1003500081E0AEDE82E890E0FDDE61E080E068DF13
:1003600080EA90E0F7DE60E08F2D62DF62E070E00F
:10037000802F992787FD9095FCDE60E08EE058DFA6
:1003800062E070E08C2D992787FD9095F2DE1111C7
:1003900007C061E080E04CDF8BEA90E0DBDE11C05B
:1003A000113039F461E08F2D43DF8EE990E0D2DE29
:1003B00008C0123031F461E08EE03ADF8EE990E05F
:1003C000C9DECE010197F1F7CE010197F1F7CE0119
:1003D0000197F1F7CE010197F1F7CE010197F1F7FF
:1003E000CE010197F1F7FE013197F1F7FE01319748
:1003F000F1F778CF35DF0093F000C092F100109252
:10040000F20060E081E054DE8DEA90E0A3DE61E07E
:1004100084E00EDF8091F00062E070E090E0A9DE01
:100420008DEB90E097DE61E087E002DF8091F100E4
:1004300062E070E090E09DDE8DEB90E08BDE61E0AD
:100440008AE0F6DE8091F20062E070E090E091DEFA
:100450008091F000811129C08091F100811125C0A7
:100460008091F200811121C0FDDE60E081E020DE9C
:100470008FEB90E06FDE61E080E0DADE8FEC90E001
:1004800069DE81E0DDDE61E080E0D2DE8FED90E0CC
:1004900061DE81E0D5DE86B390E08095909587702F
:1004A0009927892B09F0EFCEE6CFFE013197F1F7BE
:1004B000FE013197F1F7FE013197F1F7FE01319717
:1004C000F1F7A5CF00E02ECFC12C2CCF0E2D04C00C
:1004D0000F2EFBE3CF2EF02DD6B260E081E0E8DDF9
:1004E00082E890E037DE61E080E0A2DE80EA90E022
:1004F00031DE60E08F2D9CDE62E070E0802F992776
:1005000087FD909536DE60E08EE092DE62E070E07E
:100510008C2D992787FD90952CDE42CF1F920F924C
:100520000FB60F9211242F938F939F938091F30016
:100530009091F40001969093F4008093F3008091E1
:10054000F3009091F400883E934059F48091F200BA
:1005500081508093F2001092F4001092F300809189
:10056000F2009F918F912F910F900FBE0F901F90CF
:10057000189597FB072E16F4009406D077FD08D047
:100580000BD007FC05D03EF4909581959F4F0895C0
:10059000709561957F4F0895AA1BBB1B51E107C061
:1005A000AA1FBB1FA617B70710F0A61BB70B881F03
:1005B000991F5A95A9F780959095BC01CD01089592
:0405C000F894FFCFDD
:1005C4002020202057656C636F6D6520202020203B
:1005D4000020202052656C61792054696D65722079
:1005E40020005365742054696D65202D2030303A05
:1005F40030300020537461727420202020205E006B
:1006040020537461727420202020003E002020506A
:100614006F776572204F666620496E20003A004C61
:100624006F6164205475726E6564204F6666002A9B
:10063400507265737320416E79204B65792A0020CE
:1006440020202020202020202020202020202000C6
:00000001FF
